NO           			./textures/wall1.png
SO              		./textures/wall2.png 
WE	      		    ./textures/wall3.png                                        		           
EA  	              ./textures/wall4.png                     
 
F 128, 128, 128           
C 128, 128, 128

111111111111111111111111111111111111111111111111111111111111111111111111111111111111111111111111111111
10010D011010DD00010010011000000010110001010001111010000011001D10010001000111100000001000010DD000001001
111000000010000000001000011110000DD010011011D10100000010001000000011D00010100D000100000000001101110011
100000D0010D10010000110D001010100110110101101111110010000010000111000001DDD10010001000010D100000D11001
1100001010110D0000000000001001000010100011100001110D1001000100000101010100001D1100111D01010001100010D1
10001000110D001000000010D0001101100000001100001000D00010101110000000000000000000011101D01001D000000001
111001111010D00D01001010D00100000000001100000010000101001000100000010110000011100010000D00010010110001
100011000001D010D1101D00001001011101100001000011000101001011110000000000D0010D100110000011011101110111
101010001001000011000100100011000001010001001111000011D0101D111111110110001000010001010100100000110001
110010D0100110D1D100111010100000010110000110100100000010001000000001000D0010011D1000110000010D01010001
11D11011000000110D01100011001111011000000101000100000001010000000D010000000010110000101000100D00010111
111100D010000001001001101011D00111000D0010000000100D110101010000110100001D0010000110000000100101110111
1000000011100D00D010100100010000010000000100000D001010010D00D10101D1000D0011010010001110D0000D01000D11
1D1010001111100100D110D010000D0000100110001100100000011110100010110D00D0010000010101D01001100000100001
11000111101000D01001000100000100000100001100010110011010000000000010000000000001000111000100D000100101
10D011010011010111000100D1101000100100001101000011100000110110100010111101100010000011010D110000010001
10110010001000000000011101100001000D0001111D00100D1000000110010001010000000000000D0100100000100D100001
110100D01111010100101D01100001001110000011100101111D01000D00100001000D0000000D010100010001000111D00101
100000111000100110111010000100100001000000001D1110000000DD0001000110101000001000000100010100D0110101D1
111100010000110D01000000000100011100000000100D00101100101D100101000111001101001000101010110D0000011101
1000010000100010000D0001000110100010000011D1011001000D00001000011D00011000000011100010100000010D001001
1010100100001110100001001011000100000D0D010000001101D00010010111100100111DD1110100110000D01000000010D1
10011000001100000000000001100010000100001100000011100001010100000100010100110100D0000D1100101100000001
111100010111011001011110000000111D000100D0D00D10111011000101011000101D0D11101011000000110D001D00101101
110100010000010110010010111100000000001110000110010100100011D00110001010000101000D01000000100100100001
11000100010000010011011110000DD01100D00100010010000010100010D0000D1100D100100000110001D111100101000001
10000D00001000001010000D1000D0100000D0D0000D100100100011100110000011001011000010100000011D0000D0010001
100000101100000110101D00D1000100101010001D11110001110000000100D001111000110001000010100110010001010101
1010000000100000101001101000001000001000110001001011100D01000100000110110D1010110110000101100000101101
100D10101D000010010011D101010000100101101100000010111111D0DD01001000000110010010010D1010000100D0D01011
100001001001000011010000D0000010110000011100000010000D111011010000010010001101000000000001100100000101
100010000100001010010100110100D00110D000D01D110110D100000000000100110000100010010111011101100010100101
100010DD10100000001000000010D10100000101100D0000D00110D01100001100001110000D0100010D000010D110000D0011
100101D11000000000000011010000000D001001111000000010D000100101011000011000100D000010001101010011111001
10000000011111101100001000000000000000000001000001110D01100011D00000110D011100001100000110110000D01011
100000000D0000000D1000000000000000000001100000000D111001100101000111001D001100010100000110000010D00001
101D0DD0000101000100D00001111001010000000001110110101001D001D01110000110000100000000001100100001100101
10100000010000000111100010000000010DD011D000000000001000010111011DD0001100D01000001100011D001100100101
1D0000DD001110110100100011000010101D0000001000010100000001010000D1011001100000000100001000000000100D01
1100100101000010000010000111001000D101001010110000001101101000000D00000D000001000000DD00000D000D001D11
1010010100101100D0D0D11D000000000001001D11010001101010010000110DD000101000100010100D100101D00100000001
1110D100100D1010D1110011010000010010000010000000000000D01110010001000D0100D00010110101010111100000D101
110001000D010110000000001101101100000011000000D0D010010101110001110010D0100D01000011D00010001000000001
11101000100110000001110D000001110110001011100010000111D0011D1010D0D01110D000000110010000000001D1101001
1010000011111000001001101001101000100010010001101000101100001010D00010D1000001100001100001000001000101
110000100D00001110110D01010D00111100D1D000101100101001001000000000100D10100000001011010101000001000001
101D11010100010010D110010D0100110100000010000001011010D1000D01010010101000010000001000D1D00000000100D1
1000011010110000D11100100001011001000000101000010101110000110D0000100100011D100000100010010D000DD0D101
100000000110100000100000000001000110110001D011D0011000000000010001D10100010001010000000000011100100011
1010001001001110101010D10D0100010101011001000001001001000000101010000000011001011000011100000110010001
10101D0011001100111001011000001000000001000000101000111010D1101000001000000000101100001D0D001000010111
11D1001100110000000000101000100100000DD010000101110D0000111DD01010100D10000001000100000000DD001D000001
10D0001001D0000100100000100000100D000001011010100100101000D0000011101D00000000010010010010D01111100011
1D00010100D101010100100000000010D0100111000100D000100000D1000000100010001D0110100D000011D0110011D00111
101D00D0101011010100010000000001000D0100010D101001000D10000000001010011000000001010010000DD00110110001
100000110011000100000D0010011100000D00001001001010D100000100001000010100000001010010000010000000000101
101000000100101D00101000D00010011110000001101100010D000000000000010000000010D1D10100101010111000D10001
1000000010000D00010D0010110110000D10D10010000100D00D10010101D1010DD111001011101001000000D0100D100D1001
1000111001001D11D0000110010001001001000D0100010100101010011D00D0100001001D0101110D0000001010101001D101
111000010110000D00D1010101001100000000001000D101010100000D0111D00100101000D000001D00010000001110000001
1010000000000111010001001000100000D01D11001101010001D01001100000D100000D1D0010010000001110001001D00111
10001001D0101000100001D0110001010000001100000010D100010101000000D1010000110010101110011100000000000101
1000110100100010000110000100001100000101100000110101010001011110D10100D11101000101100110011D0100110101
10001000000011000100110100100011101001001D010D1D00001D001000010100010000D1101010000D0101010D0100010001
1D00010001D001000100011010011010100001001000110D0D101000000001D0011101001000100100D0100010100000D10111
10000000000001100000101100D011000111110000000D0000001000000000110000110000000000D011110101001100101001
10001D1001DD0010D000100111D00100000001000110000D1000D0000000100100D11101000000101100011110D01100011101
100000110011010100100001010000001001100000100111100001001010001000001100000110D00010D10010001100110001
100001000101000D00000110011100000111100D000000010001100000001000000D0010100D10000011010001001000000011
110100110100100D0111100001110101000000010010001000N00010000000111000D1001D000D000000000D0101111DD10D01
1D0000000000100000101000010000D01111100100000100D0011D010000000D01001000000011001DD000001111D000010101
1001000000D000100000D010010001001101100000011010101100000000010011001000010111010100101DD0011001100001
10000100011010100000010010110000000000101110100001100001DD00D010001001DD00100101010D101000001000010111
11001001110000000000D0010001000010100010100D0D000110001D000000000000D000000001100001000D01010111100101
10001000111100100D100001D001001110000D1110000011011010D0000100D00010000100000101010000010D010100010101
11100000DDD1101000010000001000100010010100010000000000000000010000101010101001000D00000000000100010111
10000000010101010000111D0001001110100D0111000001010101011DD1111001110D10000000110000000010D11100010001
1D100000011010011000110010001100100101100000011101001000010010000010001101D0001101101001011101010D1101
11100000000011000000100000100011011000010101000010001100D000001000100000001011110011000110100101110001
11011010DD000010000D010010010D0D00010000000000D100000010101111000100011000000000000000000110D00D011001
100D100000001011000000100D11000011001000D0100D000D100000000100011001110101001000110100000001000110D011
1D110000011110D0100100101001D100D0100001001000100DDD011000101D001010000001101000100010010001100100D001
1101000000100010000100101100D01D100001100000110100010D1D00001010D0001010001111000100101000000010000001
11000000100100100100101D1001000010001D000010100D0001000001000100000010010010001000010000011001001000D1
100100100DD001000000D0000111110000D00010000000001100000000000000D0001D00D0100000000000D00100100D010D01
110000010000000010000111D010000101110010D00100D1101010D1001001D100011000100100100010000000001000000D01
111000000001101000100010110010D10000101011011001110D010001010100000011D01011D00100D00001011110001DD001
1000000000001D000101010010D100010100000010000010D0000D0000011001100011100100000D0001000111011000110011
1101010010000001010D00001000000000100010D10D001000101001D0D000010000D010000100000100001000101000000001
100D1000100D10000110010100001110100011100110D0101100D0000010101000001D0011D000101D0010010D000100001001
100D00110001100100000000100011011111000D111D0010000001000010010001D01D000000110000110010001000001D00D1
10010D00010110001001010000011000D011100100011000D01000000D10DD0001000000010001011010010010000100111101
1D00000010000010111110D0000010D0100110010100DD000001000010010D010011101100001101010000101D11000D000001
1000100000D1110000001D000D110001000010000001110010000100100000000000101010100010001D000101000000001001
1010000001001100001100D000100000000000D001D0101001000DD000D000010110100110100D00000000100D010010000001
10D0D100100011100010D001001000101100100001001000D000101101000000000000001D0000100100111000000001010111
1011000000000101001001011000D000D000100D00000001000000001100010001001010011100011000001110111001010101
11D0D00101D0DD1101000D0D01D000001D000D000000001011001000011110000011011000000110101100D001000010000101
1000111100011000010000010101000111000011D1000001D00010100D011010001100DD1000001101110011001D000D000001
1010D0000D010000110111D0DD100111011010D1000D1010101101011000010010D100001000D1D110010010001000D0001111
10101111D0000D00D1000000000D0010010101000000D000110D1001011000010000101000010110010001000101D010001001
111111111111111111111111111111111111111111111111111111111111111111111111111111111111111111111111111111